{
  "abi": [
    {
      "inputs": [],
      "stateMutability": "nonpayable",
      "type": "constructor"
    },
    {
      "inputs": [],
      "name": "getNum",
      "outputs": [
        {
          "internalType": "uint256",
          "name": "",
          "type": "uint256"
        }
      ],
      "stateMutability": "view",
      "type": "function"
    },
    {
      "inputs": [
        {
          "internalType": "uint256",
          "name": "limit",
          "type": "uint256"
        }
      ],
      "name": "getSlice",
      "outputs": [
        {
          "internalType": "string[]",
          "name": "",
          "type": "string[]"
        }
      ],
      "stateMutability": "view",
      "type": "function"
    },
    {
      "inputs": [],
      "name": "increment",
      "outputs": [],
      "stateMutability": "nonpayable",
      "type": "function"
    },
    {
      "inputs": [],
      "name": "number",
      "outputs": [
        {
          "internalType": "uint256",
          "name": "",
          "type": "uint256"
        }
      ],
      "stateMutability": "view",
      "type": "function"
    },
    {
      "inputs": [
        {
          "internalType": "uint256",
          "name": "newNumber",
          "type": "uint256"
        }
      ],
      "name": "setNumber",
      "outputs": [],
      "stateMutability": "nonpayable",
      "type": "function"
    },
    {
      "inputs": [
        {
          "internalType": "uint256",
          "name": "",
          "type": "uint256"
        }
      ],
      "name": "wordList",
      "outputs": [
        {
          "internalType": "string",
          "name": "",
          "type": "string"
        }
      ],
      "stateMutability": "view",
      "type": "function"
    }
  ],
  "bytecode": {
    "object": "0x608060405234801561001057600080fd5b50604051806101400160405280604051806040016040528060058152602001644c6f72656d60d81b815250815260200160405180604001604052806005815260200164697073756d60d81b8152508152602001604051806040016040528060058152602001643237b637b960d91b8152508152602001604051806040016040528060038152602001621cda5d60ea1b815250815260200160405180604001604052806004815260200163185b595d60e21b81525081526020016040518060400160405280600b81526020016a31b7b739b2b1ba32ba3ab960a91b81525081526020016040518060400160405280600a81526020016961646970697363696e6760b01b815250815260200160405180604001604052806004815260200163195b1a5d60e21b8152508152602001604051806040016040528060038152602001621cd95960ea1b815250815260200160405180604001604052806002815260200161646f60f01b815250815250600190600a61018b929190610191565b506103b4565b8280548282559060005260206000209081019282156101d7579160200282015b828111156101d757825182906101c790826102f5565b50916020019190600101906101b1565b506101e39291506101e7565b5090565b808211156101e35760006101fb8282610204565b506001016101e7565b5080546102109061026c565b6000825580601f10610220575050565b601f01602090049060005260206000209081019061023e9190610241565b50565b5b808211156101e35760008155600101610242565b634e487b7160e01b600052604160045260246000fd5b600181811c9082168061028057607f821691505b6020821081036102a057634e487b7160e01b600052602260045260246000fd5b50919050565b601f8211156102f057600081815260208120601f850160051c810160208610156102cd5750805b601f850160051c820191505b818110156102ec578281556001016102d9565b5050505b505050565b81516001600160401b0381111561030e5761030e610256565b6103228161031c845461026c565b846102a6565b602080601f831160018114610357576000841561033f5750858301515b600019600386901b1c1916600185901b1785556102ec565b600085815260208120601f198616915b8281101561038657888601518255948401946001909101908401610367565b50858210156103a45787850151600019600388901b60f8161c191681555b5050505050600190811b01905550565b6104da806103c36000396000f3fe608060405234801561001057600080fd5b50600436106100625760003560e01c80633fb5c1cb1461006757806364f764701461007c57806367e0badb146100a55780638381f58a146100b757806387d150e1146100c0578063d09de08a146100e0575b600080fd5b61007a61007536600461033c565b600055565b005b61008f61008a36600461033c565b6100e8565b60405161009c919061039b565b60405180910390f35b6000545b60405190815260200161009c565b6100a960005481565b6100d36100ce36600461033c565b610194565b60405161009c91906103b5565b61007a610326565b600181815481106100f857600080fd5b90600052602060002001600091509050805461011390610417565b80601f016020809104026020016040519081016040528092919081815260200182805461013f90610417565b801561018c5780601f106101615761010080835404028352916020019161018c565b820191906000526020600020905b81548152906001019060200180831161016f57829003601f168201915b505050505081565b6001546060908211156101ed5760405162461bcd60e51b815260206004820152601d60248201527f4c696d6974206578636565647320776f72644c697374206c656e677468000000604482015260640160405180910390fd5b60008267ffffffffffffffff81111561020857610208610451565b60405190808252806020026020018201604052801561023b57816020015b60608152602001906001900390816102265790505b50905060005b8381101561031f576001818154811061025c5761025c610467565b90600052602060002001805461027190610417565b80601f016020809104026020016040519081016040528092919081815260200182805461029d90610417565b80156102ea5780601f106102bf576101008083540402835291602001916102ea565b820191906000526020600020905b8154815290600101906020018083116102cd57829003601f168201915b505050505082828151811061030157610301610467565b602002602001018190525080806103179061047d565b915050610241565b5092915050565b6000805490806103358361047d565b9190505550565b60006020828403121561034e57600080fd5b5035919050565b6000815180845260005b8181101561037b5760208185018101518683018201520161035f565b506000602082860101526020601f19601f83011685010191505092915050565b6020815260006103ae6020830184610355565b9392505050565b6000602080830181845280855180835260408601915060408160051b870101925083870160005b8281101561040a57603f198886030184526103f8858351610355565b945092850192908501906001016103dc565b5092979650505050505050565b600181811c9082168061042b57607f821691505b60208210810361044b57634e487b7160e01b600052602260045260246000fd5b50919050565b634e487b7160e01b600052604160045260246000fd5b634e487b7160e01b600052603260045260246000fd5b60006001820161049d57634e487b7160e01b600052601160045260246000fd5b506001019056fea2646970667358221220d979ec823673b895276469b6b53cdb849c8300f94d0ef01a680d46036846af0964736f6c63430008150033",
    "linkReferences": {}
  },
  "methodIdentifiers": {
    "getNum()": "67e0badb",
    "getSlice(uint256)": "87d150e1",
    "increment()": "d09de08a",
    "number()": "8381f58a",
    "setNumber(uint256)": "3fb5c1cb",
    "wordList(uint256)": "64f76470"
  },
  "id": 18
}